:060000000A128A11122809
:10000800FE00030E83120313D5000408D6000A0865
:10001800D7007F08D8000A128A15532C0A128A11B1
:10002800152883120313E5018313593084006530C2
:100038000A128A15AA230A128A11A0308400AC3049
:100048000A128A15AA230A128A1183010A128A152A
:100058001D2D831203132D088039FF007F08B70078
:100068002D08B2003207FF007F08BD00AC1F3D28F5
:100078003E283F283D143D080319432844285328A7
:100088003D0A031D4828492851280030AD0000309A
:10009800AC000030AB000030AA00AC175B28003081
:1000A800AD000030AC000030AB000030AA003108D1
:1000B8008039FF007F08B7063108B2003207FF0019
:1000C8007F08BC00B01F69286A286B283C143C08CC
:1000D80003196F2870287F283C0A031D7428752887
:1000E8007D280030B1000030B0000030AF00003093
:1000F800AE00B01787280030B1000030B0000030E3
:10010800AF000030AE003C0803198B288C289128DA
:100118003D08031D902891289A280030AD00003032
:10012800AC000030AB000030AA008D2B2A08FF007D
:100138007F08F00030080A128A15CC240A128A11A6
:10014800710883120313C3007008C2004208B2008A
:10015800B301B401B5013508BB003408BA0033084F
:10016800B9003208B8004308B200B301B401B501C0
:100178003508C1003408C0003308BF003208BE008B
:100188002B08FF007F08F0002F080A128A15CC24DC
:100198000A128A11710883120313C3007008C2007F
:1001A8004208B200B301B401B5013208B8073308F8
:1001B80003110318013E0319E228B9073408031193
:1001C8000318013E0319E928BA0735080311031873
:1001D800013E0319F028BB074308B200B301B4017C
:1001E800B5013208BE07330803110318013E03198D
:1001F800FE28BF07340803110318013E0319052917
:10020800C007350803110318013E03190C29C1075B
:100218002C08FF007F08F0002E080A128A15CC244B
:100228000A128A11710883120313C3007008C200EE
:100238004208B200B301B401B5013208B807330867
:1002480003110318013E03192A29B90734080311B9
:100258000318013E03193129BA0735080311031899
:10026800013E03193829BB074308B200B301B401A2
:10027800B5013208BE07330803110318013E0319FC
:100288004629BF07340803110318013E03194D29F5
:10029800C007350803110318013E03195429C10783
:1002A8000830B2000310B80DB90DBA0DBB0DB20B72
:1002B80056292B08FF007F08F0002E080A128A151D
:1002C800CC240A128A11710883120313C300700820
:1002D800C2004208B2004308B300B401B5013208B5
:1002E800B807330803110318013E03197C29B9071D
:1002F800340803110318013E03198329BA07350886
:1003080003110318013E03198A29BB072A08FF00B5
:100318007F08F0002F080A128A15CC240A128A11C5
:10032800710883120313C3007008C2004208B200A8
:100338004308B300B401B5013208B8073308031104
:100348000318013E0319A929B90734080311031832
:10035800013E0319B029BA07350803110318013EF5
:100368000319B729BB070830B2000310B80DB90D3F
:10037800BA0DBB0DB20BB9292A08FF007F08F0009F
:100388002E080A128A15CC240A128A1171088312BF
:100398000313C3007008C2004208B2004308B30048
:1003A800B401B5013208B807330803110318013E38
:1003B8000319DF29B907340803110318013E03198B
:1003C800E629BA07350803110318013E0319ED2978
:1003D800BB072B08FF007F08F00030080A128A15B7
:1003E800CC240A128A11710883120313C3007008FF
:1003F800C2004208B2004308B300B401B501320894
:10040800BE07330803110318013E03190C2ABF075E
:10041800340803110318013E0319132AC0073508CD
:1004280003110318013E03191A2AC1072C08FF00FB
:100438007F08F0002F080A128A15CC240A128A11A4
:10044800710883120313C3007008C2004208B20087
:100458004308B300B401B5013208BE0733080311DD
:100468000318013E0319392ABF073408031103187A
:10047800013E0319402AC007350803110318013E3D
:100488000319472AC1072C08FF007F08F00030082D
:100498000A128A15CC240A128A11710883120313CE
:1004A800C3007008C2004208B2004308B300B40198
:1004B800B50108300310B20DB30DB40DB50DFF3EF4
:1004C800031D5E2A3208BE07330803110318013ED4
:1004D80003196F2ABF07340803110318013E0319D3
:1004E800762AC007350803110318013E03197D2A2F
:1004F800C1073808B2003908B3003A08B4003B080D
:10050800B50018300310B50CB40CB30CB20CFF3E98
:10051800031D862A3208BE07330803110318013E5B
:100528000319972ABF07340803110318013E03195A
:100538009E2AC007350803110318013E0319A52A8E
:10054800C1070830B2000310B80DB90DBA0DBB0DC4
:10055800B20BA72A3D083C07B200B301B30D32081D
:10056800823EC20033080318013EFF3EC300D92A69
:100578000130B2000310BE0DBF0DC00DC10DB20B8E
:10058800BE2ABB1FC82AC92ACA2A3E140130B20093
:100598000310B80DB90DBA0DBB0DB20BCC2AFF3044
:1005A800C2070318C30AFF30C307C01FDC2ADD2AAD
:1005B800BC2ABC01BB1FE12AE22AFE2AFF3038050B
:1005C800B200FF303905B300FF303A05B4007F3080
:1005D8003B05B50035083404330432040319F52A01
:1005E800F62AF92ABC01BC0AFE2A3E1CFC2AFD2A6E
:1005F800FE2AF62A3C080319022B032B342B013060
:10060800BE07003003180130BF070030031801305F
:10061800C007003003180130C107411C142B152BEB
:10062800342B3E08B2003F08B3004008B40041082C
:10063800B5000130B600350DB50CB40CB30CB20CD6
:10064800B60B1F2B3508C1003408C0003308BF00A3
:100658003208BE000130C2070318C30A0030C307BE
:100668004308803AFF0080307F02031D3D2BFF3096
:100678004202031C402B412B4C2B7F308312031367
:10068800C1008030C0000030BF000030BE00812BA8
:10069800831203134308803AFF0080307F02031D52
:1006A800572B0130420203185A2B5B2B672B003063
:1006B80083120313C1000030C0000030BF000030B7
:1006C800BE00B701812B831203134208FF007F0885
:1006D800BD00FF30BE05FF30BF057F30C0050030CC
:1006E800C1053D1C782B792B7A2BC0173D08B20029
:1006F8000310320CFF007F08C1003708FF007F0895
:10070800C1044108AD004008AC003F08AB003E08FA
:10071800AA00080083120313A40024080319952BC8
:10072800962BAA2BFD1F992B9A2BAA2B7A09A60088
:100738007B09A7007C09A8007D09A900A60A03195E
:10074800A70A0319A80A0319A90AB22B7D08A90048
:100758007C08A8007B08A7007A08A6007D087C040E
:100768007B047A04031DB92BBA2BC32B0030FD0080
:100778000030FC000030FB000030FA00492C9630B5
:10078800FF007F08A500D52B0130FF007F08A507D3
:1007980001300310A90CA80CA70CA60CFF3E031DE2
:1007A800CD2BFE302905031DDA2BDB2BC82BF72BAD
:1007B8000130FF007F08A5070130A60700300318A5
:1007C8000130A707003003180130A80700300318CC
:1007D8000130A90701300310A90CA80CA70CA60C1E
:1007E800FF3E031DEF2BFF302905031DFC2BFD2BBE
:1007F800DC2B092C0130A5020130A0000310A60D46
:10080800A70DA80DA90DA00B022CA81B0C2C0D2CB4
:10081800132C023025020318122C132CFE2B25183A
:10082800162C172C1F2CFF30A605FF30A7057F308C
:10083800A805FF30A9050310A50C2508A000A101F3
:10084800A201A30118300310A00DA10DA20DA30D44
:10085800FF3E031D272C2008A6042108A704220810
:10086800A8042308A904240803193B2C3C2C412C78
:10087800FD1F3F2C402C412CA9172908FD002808F2
:10088800FC002708FB002608FA0008000310831262
:100898000313460D470DFF007F08CD004D08031DCB
:1008A800562C572C602C0030C7000030C600003092
:1008B800C5000030C400C52C4408C8004508C9005C
:1008C8004608CA004708CB001F300310CB0CCA0CDF
:1008D800C90CC80CFF3E031D692C4808FF007F089F
:1008E800CC00C617FF30C405FF30C505FF30C6056C
:1008F8000030C7059630CD02CD1F832C842C9E2C4A
:100908004D08803A973E03188A2C8B2C8C2C572C38
:1009180001300310C70CC60CC50CC40CFF3E031DE8
:100928008D2C0130FF007F08CD07031D9C2C9D2CCA
:100938008C2CB52C20304D02031CA32CA42CB02CDD
:10094800572C0130C8000310C40DC50DC60DC70DC6
:10095800C80BA72C0130CD024D08031DB42CB52CB3
:10096800A52C4C080319B92CBA2CC52CC409C509E7
:10097800C609C709C40A0319C50A0319C60A03190F
:10098800C70A0800F501F11FCA2CCB2CD22CF0099C
:10099800F109F00A0319F10AF501F50AF31FD52C3C
:1009A800D62CDF2CF209F309F20A0319F30A0130F5
:1009B800FF007F08F506F601F701700871040319B6
:1009C800E62CE72C1E2DF401F40AF52C0130031057
:1009D800F00DF10DFF3E031DEB2C0130FF007F08E9
:1009E800F407F11FF82CF92CEA2C01300310F60D4E
:1009F800F70DFF3E031DFA2C71087302031D062D27
:100A080070087202031C092D0A2D112D7008F202BC
:100A18007108031CF303F302761401300310F10C80
:100A2800F00CFF3E031D122D0130F402031D1D2D95
:100A38001E2DF92C75080319222D232D282DF609B2
:100A4800F709F60A0319F70A7708F1007608F000A3
:100A580008007B08FC00FD017C0883120313A30037
:100A68007D08A4007A080139FF007F08A0007908F2
:100A7800FF007F08A100A2010A128A15DB230A12CF
:100A88008A1183120313200803194B2D4C2D532D63
:100A9800A2300A128A155A250A128A11592DA03035
:100AA8000A128A155A250A128A1183120313210879
:100AB8000A128A155A250A128A1183120313230867
:100AC8000A128A155A250A128A110A128A15ED2362
:100AD8000A128A110130FF007F0883120313A2074C
:100AE8007A08F5007908F4000A128A1571260A12A4
:100AF8008A11FC00FD018312031324087D06031DDF
:100B0800872D23087C0603198A2D8B2D912D0A30F9
:100B18002202031C902D912D402D080083160313EB
:100B28002B08FB3EF000FF3003180030F10071087D
:100B3800831203135C02031DA32D70085B020318C4
:100B4800A62DA72DAA2D8716E515C12D83160313EB
:100B58002B08053EF000003003180130F100831225
:100B680003135C087102031DBB2D5B087002031898
:100B7800BE2DBF2DC12D8712E511831603132B0837
:100B8800053EF000003003180130F1008312031312
:100B98005C087102031DD22D5B0870020318D52D65
:100BA800D62DD92D65150715F02D831603132B089F
:100BB800FB3EF000FF3003180030F100710883128B
:100BC80003135C02031DEA2D70085B020318ED2D68
:100BD800EE2DF02D651107110800F200152E3F309B
:100BE8004F2E06304F2E5B304F2E4F304F2E663033
:100BF8004F2E6D304F2E7D304F2E07304F2E7F30C9
:100C08004F2E6F304F2E77304F2E7C304F2E58306E
:100C18004F2E5E304F2E79304F2E71304F2E0030D0
:100C28004F2E7208F000F1017108003A03191D2EC9
:100C3800132E7008003A0319F32D013A0319F52D04
:100C4800033A0319F72D013A0319F92D073A031945
:100C5800FB2D013A0319FD2D033A0319FF2D013A23
:100C68000319012E0F3A0319032E013A0319052E11
:100C7800033A0319072E013A0319092E073A0319F3
:100C88000B2E013A03190D2E033A03190F2E013AC0
:100C98000319112E132E080083160313AD00AE019D
:100CA8008312031387118316031307168312031382
:100CB800071683160313AF018312031387150A124D
:100CC8008A15BB230A128A1183120313070E0139EE
:100CD80083160313AC002F08073C013E752E031042
:100CE800AC0DFF3E031D732E2C08FF007F08AE04D9
:100CF8008312031387110130FF007F088316031343
:100D0800AF0708302F02031C8A2E8B2E602E071285
:100D18002D080319902E912E952E83120313071276
:100D2800982E8312031307160A128A15BB230A1278
:100D38008A118312031387150A128A15BB230A1214
:100D48008A11831203138711831603132E080800D0
:100D58000A30831203136402031CB32EB42EC82E68
:100D68000A128A11B9270A128A11FF008312031383
:100D78006008A03E84007F08831380000130FF00D4
:100D88007F08E007E401CC2E0130FF007F08E4076C
:100D98000A306002031CD12ED22E062FE401E00196
:100DA800DB01DC01D4015408A03E84008313000851
:100DB800D200D3015208DB070318DC0A5308DC070A
:100DC8000130FF007F08D4070A305402031CED2EBF
:100DD800EE2ED72E0A30F0000030F1005C08F30048
:100DE8005B08F2000A128A1598250A128A117108FE
:100DF80083120313DC007008DB000A128A119225A3
:100E08000A128A1108008316031331080139FF00FA
:100E18007F08B4003008FF007F08B3000A128A1563
:100E2800FF230A128A1183160313340803191D2F8E
:100E38001E2F252FA2300A128A1525260A128A117A
:100E48002B2FA0300A128A1525260A128A1183161A
:100E5800031333080A128A1525260A128A110A1260
:100E68008A15FF230A128A118316031334080319FB
:100E78003E2F3F2F462FA3300A128A1525260A1225
:100E88008A114C2FA1300A128A1525260A128A11B6
:100E980001300A128A1150260A128A11FF007F08AF
:100EA80083160313B2000A128A1511240A128A1132
:100EB8008316031332080800F501F31F642F652F0A
:100EC8006C2FF209F309F20A0319F30AF501F50A7E
:100ED800F11F6F2F702F752FF009F109F00A031910
:100EE800F10A7008710403197A2F7B2FAA2FF401D5
:100EF800F40A892F01300310F00DF10DFF3E031D98
:100F08007F2F0130FF007F08F407F11F8C2F8D2FF2
:100F18007E2F71087302031D932F70087202031C41
:100F2800962F972F9D2F7008F2027108031CF30368
:100F3800F30201300310F10CF00CFF3E031D9E2F4D
:100F48000130F402031DA92FAA2F8D2F750803194C
:100F5800AE2FAF2FB42FF209F309F20A0319F30ADF
:100F68007308F1007208F000080002300A128A15AE
:100F7800BE260A128A11700883120313CE00710864
:100F8800CF00D001D1015108FD005008FC004F08E6
:100F9800FB004E08FA0000300A128A118E230A124A
:100FA8008A117D0883120313B1007C08B0007B0806
:100FB800AF007A08AE003E30AD00FA30AC005E30CB
:100FC800AB003530AA000A128A112D200A128A11A4
:100FD800831203132D08C7002C08C6002B08C50070
:100FE8002A08C4000A128A114A240A128A11831292
:060FF80003134408080089
:101726008312031310140800831203131010080009
:101736008312031388018610871265110800831629
:101746000313071283120313871507160800640094
:101756008001840A0406031900340406AB2B00003A
:10176600000000000000000000000000000008006B
:101776000000000000000000000000000000000063
:1017860008000230831603139F00413083120313AF
:101796009F0008003030831203139000E7308F005B
:1017A60096308E00831603130C148B170B17080044
:1017B60083120313871507160A128A15B2230A1213
:1017C6008A158312031307120A128A15B2230A1204
:1017D6008A15080083120313871507120A128A1541
:1017E600B2230A128A158312031307160A128A15E0
:1017F600B2230A128A1508008312031387150716E7
:101806000A128A15BB230A128A15831203130712BA
:101816000A128A15BB230A128A15080083120313BB
:10182600871507120A128A15BB230A128A15831214
:10183600031307160A128A15BB230A128A15080013
:1018460083120313E51E282C292C382C0A128A1120
:10185600AC260A128A150A128A15F3240A128A1568
:101866000A128A15DC250A128A150800003083162A
:101876000313B000B1000A128A1107270A128A154B
:10188600FF007F0883160313AB0014302B020318E6
:101896004D2C4E2C522C3C30FF007F08AB0008002C
:1018A6000C1C562C572C632CE7308F0096308E007C
:1018B6000A128A1523240A128A15831203130C109E
:1018C6005808FF0057088A0056088400550E830002
:1018D600FE0E7E0E090083160313AC01AD01000057
:1018E6000130FF007F0883160313AD07FA302D027F
:1018F600031C7E2C7F2C722C0130FF007F08AC0766
:10190600FA302C02031C882C892C712C08008312B7
:10191600031386198F2C902C952C6518932C942CD8
:10192600952C6514651C982C992CA82C0A128A15DE
:101936006E240A128A15203083120313E5068316D5
:101946000313AA01831203136510080083160313F9
:10195600860187018312031366140A128A15A223CD
:101966000A128A150A128A15CD230A128A150A1234
:101976008A15C4230A128A158316031386150616BA
:10198600861686108801051285118712071105151E
:101996000800F800F401F5017008F200F30172087E
:1019A600F6007308F700781CD92CDA2CE02C7608A0
:1019B600F4070318F50A7708F50701300310F60D4A
:1019C600F70DFF3E031DE12C0310F80C7808031DEC
:1019D600ED2CEE2CD62C7508F1007408F0000800EA
:1019E60083120313E51DF82CF92C132D0130DF07A4
:1019F600FF305F07F00064307002031C032D042DD6
:101A06001C2DDF010310861C031403180B2D0F2D4C
:101A1600831203138614122D8312031386101C2DB2
:101A2600651D162D172D1A2DDF0186141C2DDF01BD
:101A3600861008000A128A15A9240A128A150A12A3
:101A46008A1593230A128A15322D0A128A158A24B8
:101A56000A128A150A128A15AD270A128A158312E6
:101A66000313E51A372D382D282D0A128A159723C8
:101A76000A128A158312031365124B2D0A128A1550
:101A86009B230A128A150A128A158A240A128A15B3
:101A960083120313E51E502D512D412D0A128A156E
:101AA60039240A128A15222D0A128A111228F200E6
:101AB600831203138711F3017208F0007308073CC1
:101AC600013E672D0310F00CFF3E031D652D7008C7
:101AD6000139F100F10E07087106EF39710687002A
:101AE60087150A128A15B2230A128A15831203135E
:101AF60087110130FF007F08F30708307302031CCB
:101B0600852D862D5F2D07160A128A15B2230A1215
:101B16008A158312031387150A128A15B2230A122D
:101B26008A158312031387110800F401F501700862
:101B3600710403199F2DA02DD72DF601F60AAE2D9F
:101B460001300310F00DF10DFF3E031DA42D0130F1
:101B5600FF007F08F607F11FB12DB22DA32D01302E
:101B66000310F40DF50DFF3E031DB32D710873022E
:101B7600031DBF2D70087202031CC22DC32DCA2D72
:101B86007008F2027108031CF303F30274140130A7
:101B96000310F10CF00CFF3E031DCB2D0130F602B5
:101BA600031DD62DD72DB22D7508F1007408F0004F
:101BB600080083120313651EE12DE22D1A2E013053
:101BC600FF007F08DE07831603132B080A128A1507
:101BD6005C270A128A156430831203135E02031C03
:101BE600F52DF62DFF2D0130D9070318DA0A00303E
:101BF600DA07DE010130E60600305A020530031925
:101C06005902031C072E082E242E6512DE016614C7
:101C16000030F900FA00831603132B08FF007F0833
:101C2600FB000A128A112D250A128A15242E661423
:101C36005B080A128A155C270A128A158312031397
:101C4600E516080083160313AE00831203138711EB
:101C560083160313AF012E08AC002F08073C013E84
:101C6600362E0310AC0CFF3E031D342E2C08013912
:101C7600AD00AD0E831203130708831603132D065A
:101C8600EF392D0683120313870087150A128A156A
:101C9600BB230A128A158312031387110130FF0032
:101CA6007F0883160313AF0708302F02031C5C2E30
:101CB6005D2E2E2E8312031307160A128A15BB23D6
:101CC6000A128A158312031387150A128A15BB2373
:101CD6000A128A1583120313871108007508013941
:101CE600FF007F08F8007408FF007F08F7000A125B
:101CF6008A15DB230A128A1578080319832E842E87
:101D06008B2EA2300A128A155A250A128A15912E8E
:101D1600A0300A128A155A250A128A1577080A125D
:101D26008A155A250A128A150A128A15DB230A12FF
:101D36008A1578080319A02EA12EA82EA3300A1200
:101D46008A155A250A128A15AE2EA1300A128A154C
:101D56005A250A128A1501300A128A150C270A1208
:101D66008A15FF007F08F6000A128A15ED230A126B
:101D76008A1576080800F900CF2E01308312031366
:101D86009F00E22E0930831203139F00E22E1130CA
:101D9600831203139F00E22E7908F200F301730801
:101DA600003A0319D72EE22E7208003A0319C02E04
:101DB600013A0319C52E033A0319CA2EE22E8312DD
:101DC60003131F151F19E82EE92EE52E831603139C
:101DD6001E08F20006300310F20CFF3E031DEE2E25
:101DE6007208F300F401831203131E08F500F601CE
:101DF6000310F50DF60D0310F50DF60D73087504B9
:101E0600F70074087604F8007708F0007808F10007
:101E16000800F100F20183120313871183160313DE
:101E26000716831203130716F30187150A128A157C
:101E3600B2230A128A1583120313070E0139F00022
:101E46007308073C013E292F0310F00DFF3E031DCA
:101E5600272F7008FF007F08F20487110130FF006A
:101E66007F08F30708307302031C3A2F3B2F182F05
:101E760083160313071271080319422F432F472FA6
:101E86008312031307124A2F8312031307160A122B
:101E96008A15B2230A128A158312031387150A12AA
:101EA6008A15B2230A128A15831203138711720840
:101EB6000800FA000A30F0000030F1007A08F80055
:101EC600F9017808F2007908F3000A128A116027EE
:101ED6000A128A157008FF007F0883120313E300B5
:101EE6000A30F0000030F1007A08F800F9017808AD
:101EF600F2007908F3000A128A11C6240A128A151A
:101F06007008FF007F0883120313E200661C8C2F03
:101F16008D2FAB2FE51C902F912F9D2F8511051628
:101F260063080A128A11F1250A128A15831203130D
:101F36008800A82F0512851562080A128A11F12554
:101F46000A128A158312031388000230E506AC2FA5
:101F56008801080083120313651EB22FB32FE72FE3
:101F6600061AB62FB72FCF2F4B30831603132B022B
:101F76000318BE2FBF2FCF2F0A128A156E240A12FE
:101F86008A150530FF007F0883160313AB078312FB
:101F96000313D901DA01FF2F8312861AD32FD42F08
:101FA600E62F2430831603132B02031CDB2FDC2FB2
:101FB600E62F0A128A156E240A128A150530831630
:101FC6000313AB02CA2FFF2F061EEA2FEB2FEF2FAC
:101FD600861AEE2FEF2FFF2F0A128A156E240A1289
:101FE6008A15831203136516D901DA013C30FF0006
:0A1FF6007F0883160313AB000800F8
:02400E00BA3FB7
:00000001FF
